{
  "_format": "hh-sol-artifact-1",
  "contractName": "PayveFactory",
  "sourceName": "contracts/PayveFactory.sol",
  "abi": [
    {
      "inputs": [
        {
          "internalType": "address",
          "name": "_idrxToken",
          "type": "address"
        }
      ],
      "stateMutability": "nonpayable",
      "type": "constructor"
    },
    {
      "anonymous": false,
      "inputs": [
        {
          "indexed": true,
          "internalType": "address",
          "name": "owner",
          "type": "address"
        },
        {
          "indexed": false,
          "internalType": "address",
          "name": "payveContract",
          "type": "address"
        }
      ],
      "name": "CompanyCreated",
      "type": "event"
    },
    {
      "inputs": [
        {
          "internalType": "address",
          "name": "",
          "type": "address"
        }
      ],
      "name": "companies",
      "outputs": [
        {
          "internalType": "address",
          "name": "",
          "type": "address"
        }
      ],
      "stateMutability": "view",
      "type": "function"
    },
    {
      "inputs": [],
      "name": "createCompany",
      "outputs": [
        {
          "internalType": "address",
          "name": "",
          "type": "address"
        }
      ],
      "stateMutability": "nonpayable",
      "type": "function"
    },
    {
      "inputs": [
        {
          "internalType": "address",
          "name": "owner",
          "type": "address"
        }
      ],
      "name": "getCompany",
      "outputs": [
        {
          "internalType": "address",
          "name": "",
          "type": "address"
        }
      ],
      "stateMutability": "view",
      "type": "function"
    },
    {
      "inputs": [],
      "name": "idrxToken",
      "outputs": [
        {
          "internalType": "address",
          "name": "",
          "type": "address"
        }
      ],
      "stateMutability": "view",
      "type": "function"
    }
  ],
  "bytecode": "0x608060405234801561001057600080fd5b50604051612f0d380380612f0d833981810160405281019061003291906100db565b806000806101000a81548173ffffffffffffffffffffffffffffffffffffffff021916908373ffffffffffffffffffffffffffffffffffffffff16021790555050610108565b600080fd5b600073ffffffffffffffffffffffffffffffffffffffff82169050919050565b60006100a88261007d565b9050919050565b6100b88161009d565b81146100c357600080fd5b50565b6000815190506100d5816100af565b92915050565b6000602082840312156100f1576100f0610078565b5b60006100ff848285016100c6565b91505092915050565b612df6806101176000396000f3fe608060405234801561001057600080fd5b506004361061004c5760003560e01c8063355e6ce81461005157806362bc56e614610081578063d6bc7c63146100b1578063e3d1317a146100cf575b600080fd5b61006b6004803603810190610066919061041a565b6100ed565b6040516100789190610456565b60405180910390f35b61009b6004803603810190610096919061041a565b610120565b6040516100a89190610456565b60405180910390f35b6100b9610189565b6040516100c69190610456565b60405180910390f35b6100d76101ad565b6040516100e49190610456565b60405180910390f35b60016020528060005260406000206000915054906101000a900473ffffffffffffffffffffffffffffffffffffffff1681565b6000600160008373ffffffffffffffffffffffffffffffffffffffff1673ffffffffffffffffffffffffffffffffffffffff16815260200190815260200160002060009054906101000a900473ffffffffffffffffffffffffffffffffffffffff169050919050565b60008054906101000a900473ffffffffffffffffffffffffffffffffffffffff1681565b60008073ffffffffffffffffffffffffffffffffffffffff16600160003373ffffffffffffffffffffffffffffffffffffffff1673ffffffffffffffffffffffffffffffffffffffff16815260200190815260200160002060009054906101000a900473ffffffffffffffffffffffffffffffffffffffff1673ffffffffffffffffffffffffffffffffffffffff161461027c576040517f08c379a0000000000000000000000000000000000000000000000000000000008152600401610273906104ce565b60405180910390fd5b60008060009054906101000a900473ffffffffffffffffffffffffffffffffffffffff16336040516102ad906103aa565b6102b89291906104ee565b604051809103906000f0801580156102d4573d6000803e3d6000fd5b50905080600160003373ffffffffffffffffffffffffffffffffffffffff1673ffffffffffffffffffffffffffffffffffffffff16815260200190815260200160002060006101000a81548173ffffffffffffffffffffffffffffffffffffffff021916908373ffffffffffffffffffffffffffffffffffffffff1602179055503373ffffffffffffffffffffffffffffffffffffffff167f788398d6551ff56e32d287d0bdcd3a5611ef3af0a4ce1a879dc5f1f84f79bdcb8260405161039b9190610456565b60405180910390a28091505090565b6128a98061051883390190565b600080fd5b600073ffffffffffffffffffffffffffffffffffffffff82169050919050565b60006103e7826103bc565b9050919050565b6103f7816103dc565b811461040257600080fd5b50565b600081359050610414816103ee565b92915050565b6000602082840312156104305761042f6103b7565b5b600061043e84828501610405565b91505092915050565b610450816103dc565b82525050565b600060208201905061046b6000830184610447565b92915050565b600082825260208201905092915050565b7f436f6d70616e7920616c72656164792065786973747300000000000000000000600082015250565b60006104b8601683610471565b91506104c382610482565b602082019050919050565b600060208201905081810360008301526104e7816104ab565b9050919050565b60006040820190506105036000830185610447565b6105106020830184610447565b939250505056fe60806040523480156200001157600080fd5b50604051620028a9380380620028a9833981810160405281019062000037919062000236565b80600073ffffffffffffffffffffffffffffffffffffffff168173ffffffffffffffffffffffffffffffffffffffff1603620000ad5760006040517f1e4fbdf7000000000000000000000000000000000000000000000000000000008152600401620000a491906200028e565b60405180910390fd5b620000be816200010860201b60201c565b5081600160006101000a81548173ffffffffffffffffffffffffffffffffffffffff021916908373ffffffffffffffffffffffffffffffffffffffff1602179055505050620002ab565b60008060009054906101000a900473ffffffffffffffffffffffffffffffffffffffff169050816000806101000a81548173ffffffffffffffffffffffffffffffffffffffff021916908373ffffffffffffffffffffffffffffffffffffffff1602179055508173ffffffffffffffffffffffffffffffffffffffff168173ffffffffffffffffffffffffffffffffffffffff167f8be0079c531659141344cd1fd0a4f28419497f9722a3daafe3b4186f6b6457e060405160405180910390a35050565b600080fd5b600073ffffffffffffffffffffffffffffffffffffffff82169050919050565b6000620001fe82620001d1565b9050919050565b6200021081620001f1565b81146200021c57600080fd5b50565b600081519050620002308162000205565b92915050565b6000806040838503121562000250576200024f620001cc565b5b600062000260858286016200021f565b925050602062000273858286016200021f565b9150509250929050565b6200028881620001f1565b82525050565b6000602082019050620002a560008301846200027d565b92915050565b6125ee80620002bb6000396000f3fe608060405234801561001057600080fd5b50600436106100f55760003560e01c80638cea6e2611610097578063d067894711610066578063d06789471461024e578063d6bc7c6314610283578063e4fc6b6d146102a1578063f2fde38b146102ab576100f5565b80638cea6e26146101c85780638da5cb5b146101e4578063b6b55f2514610202578063c3b2d07a1461021e576100f5565b806332648e09116100d357806332648e091461016457806339731125146101945780633ccfd60b146101b4578063715018a6146101be576100f5565b806321484803146100fa57806324260dd61461011657806328f7aa3614610148575b600080fd5b610114600480360381019061010f9190611876565b6102c7565b005b610130600480360381019061012b91906118e5565b6103e4565b60405161013f939291906119bb565b60405180910390f35b610162600480360381019061015d9190611a57565b6104a3565b005b61017e60048036038101906101799190611ac6565b6106f1565b60405161018b9190611bf3565b60405180910390f35b61019c61086b565b6040516101ab93929190611c15565b60405180910390f35b6101bc610a30565b005b6101c6610bf4565b005b6101e260048036038101906101dd9190611c4c565b610c08565b005b6101ec610fe4565b6040516101f99190611ca4565b60405180910390f35b61021c60048036038101906102179190611cbf565b61100d565b005b61023860048036038101906102339190611cbf565b6110b3565b6040516102459190611ca4565b60405180910390f35b61026860048036038101906102639190611ac6565b6110f2565b60405161027a96959493929190611cec565b60405180910390f35b61028b6111e3565b6040516102989190611db3565b60405180910390f35b6102a9611209565b005b6102c560048036038101906102c09190611ac6565b61142c565b005b6102cf6114b2565b6004600084815260200190815260200160002060020160009054906101000a900460ff1615610333576040517f08c379a000000000000000000000000000000000000000000000000000000000815260040161032a90611e1a565b60405180910390fd5b604051806060016040528083815260200182815260200160011515815250600460008581526020019081526020016000206000820151816000019081610379919061203c565b506020820151816001015560408201518160020160006101000a81548160ff021916908315150217905550905050827f9ef48c6b2fbfb3b0024d84637e67b8de0c0ed6955a3c822315274971b839c797836040516103d7919061210e565b60405180910390a2505050565b600460205280600052604060002060009150905080600001805461040790611e69565b80601f016020809104026020016040519081016040528092919081815260200182805461043390611e69565b80156104805780601f1061045557610100808354040283529160200191610480565b820191906000526020600020905b81548152906001019060200180831161046357829003601f168201915b5050505050908060010154908060020160009054906101000a900460ff16905083565b6104ab6114b2565b600073ffffffffffffffffffffffffffffffffffffffff16600260008573ffffffffffffffffffffffffffffffffffffffff1673ffffffffffffffffffffffffffffffffffffffff16815260200190815260200160002060020160009054906101000a900473ffffffffffffffffffffffffffffffffffffffff1673ffffffffffffffffffffffffffffffffffffffff161461057c576040517f08c379a00000000000000000000000000000000000000000000000000000000081526004016105739061217c565b60405180910390fd5b6000600260008573ffffffffffffffffffffffffffffffffffffffff1673ffffffffffffffffffffffffffffffffffffffff1681526020019081526020016000209050828160030190816105d0919061203c565b50818160000181905550838160020160006101000a81548173ffffffffffffffffffffffffffffffffffffffff021916908373ffffffffffffffffffffffffffffffffffffffff16021790555060018160040160006101000a81548160ff0219169083151502179055506003849080600181540180825580915050600190039060005260206000200160009091909190916101000a81548173ffffffffffffffffffffffffffffffffffffffff021916908373ffffffffffffffffffffffffffffffffffffffff1602179055508373ffffffffffffffffffffffffffffffffffffffff167f7657087667750afe9a0e3b2a3d756e2a2b4f696c3d71141eb99420bcc2f1e231846040516106e3919061210e565b60405180910390a250505050565b6106f9611605565b600260008373ffffffffffffffffffffffffffffffffffffffff1673ffffffffffffffffffffffffffffffffffffffff1681526020019081526020016000206040518060c001604052908160008201548152602001600182015481526020016002820160009054906101000a900473ffffffffffffffffffffffffffffffffffffffff1673ffffffffffffffffffffffffffffffffffffffff1673ffffffffffffffffffffffffffffffffffffffff1681526020016003820180546107bd90611e69565b80601f01602080910402602001604051908101604052809291908181526020018280546107e990611e69565b80156108365780601f1061080b57610100808354040283529160200191610836565b820191906000526020600020905b81548152906001019060200180831161081957829003601f168201915b505050505081526020016004820160009054906101000a900460ff161515151581526020016005820154815250509050919050565b600080600080925060009150600160009054906101000a900473ffffffffffffffffffffffffffffffffffffffff1673ffffffffffffffffffffffffffffffffffffffff166370a08231306040518263ffffffff1660e01b81526004016108d29190611ca4565b602060405180830381865afa1580156108ef573d6000803e3d6000fd5b505050506040513d601f19601f8201168201806040525081019061091391906121b1565b905060005b600380549050811015610a2a5760006003828154811061093b5761093a6121de565b5b9060005260206000200160009054906101000a900473ffffffffffffffffffffffffffffffffffffffff169050600260008273ffffffffffffffffffffffffffffffffffffffff1673ffffffffffffffffffffffffffffffffffffffff16815260200190815260200160002060040160009054906101000a900460ff1615610a1c5784806109c89061223c565b955050600260008273ffffffffffffffffffffffffffffffffffffffff1673ffffffffffffffffffffffffffffffffffffffff1681526020019081526020016000206000015484610a199190612284565b93505b508080600101915050610918565b50909192565b6000600260003373ffffffffffffffffffffffffffffffffffffffff1673ffffffffffffffffffffffffffffffffffffffff16815260200190815260200160002060010154905060008111610aba576040517f08c379a0000000000000000000000000000000000000000000000000000000008152600401610ab190612304565b60405180910390fd5b6000600260003373ffffffffffffffffffffffffffffffffffffffff1673ffffffffffffffffffffffffffffffffffffffff16815260200190815260200160002060010181905550600160009054906101000a900473ffffffffffffffffffffffffffffffffffffffff1673ffffffffffffffffffffffffffffffffffffffff1663a9059cbb33836040518363ffffffff1660e01b8152600401610b5f929190612324565b6020604051808303816000875af1158015610b7e573d6000803e3d6000fd5b505050506040513d601f19601f82011682018060405250810190610ba29190612379565b503373ffffffffffffffffffffffffffffffffffffffff167f7084f5476618d8e60b11ef0d7d3f06914655adb8793e28ff7f018d4c76d505d582604051610be991906123a6565b60405180910390a250565b610bfc6114b2565b610c066000611539565b565b600081604051602001610c1b91906123fd565b604051602081830303815290604052805190602001209050600060046000838152602001908152602001600020604051806060016040529081600082018054610c6390611e69565b80601f0160208091040260200160405190810160405280929190818152602001828054610c8f90611e69565b8015610cdc5780601f10610cb157610100808354040283529160200191610cdc565b820191906000526020600020905b815481529060010190602001808311610cbf57829003601f168201915b50505050508152602001600182015481526020016002820160009054906101000a900460ff16151515158152505090508060400151610d50576040517f08c379a0000000000000000000000000000000000000000000000000000000008152600401610d4790612460565b60405180910390fd5b600073ffffffffffffffffffffffffffffffffffffffff16600260003373ffffffffffffffffffffffffffffffffffffffff1673ffffffffffffffffffffffffffffffffffffffff16815260200190815260200160002060020160009054906101000a900473ffffffffffffffffffffffffffffffffffffffff1673ffffffffffffffffffffffffffffffffffffffff1614610e21576040517f08c379a0000000000000000000000000000000000000000000000000000000008152600401610e18906124cc565b60405180910390fd5b6000600260003373ffffffffffffffffffffffffffffffffffffffff1673ffffffffffffffffffffffffffffffffffffffff16815260200190815260200160002090508160000151816003019081610e79919061203c565b5081602001518160000181905550338160020160006101000a81548173ffffffffffffffffffffffffffffffffffffffff021916908373ffffffffffffffffffffffffffffffffffffffff16021790555060018160040160006101000a81548160ff0219169083151502179055506003339080600181540180825580915050600190039060005260206000200160009091909190916101000a81548173ffffffffffffffffffffffffffffffffffffffff021916908373ffffffffffffffffffffffffffffffffffffffff1602179055506004600084815260200190815260200160002060008082016000610f6e9190611653565b60018201600090556002820160006101000a81549060ff021916905550503373ffffffffffffffffffffffffffffffffffffffff167f7657087667750afe9a0e3b2a3d756e2a2b4f696c3d71141eb99420bcc2f1e2318360000151604051610fd6919061210e565b60405180910390a250505050565b60008060009054906101000a900473ffffffffffffffffffffffffffffffffffffffff16905090565b600160009054906101000a900473ffffffffffffffffffffffffffffffffffffffff1673ffffffffffffffffffffffffffffffffffffffff166323b872dd3330846040518463ffffffff1660e01b815260040161106c939291906124ec565b6020604051808303816000875af115801561108b573d6000803e3d6000fd5b505050506040513d601f19601f820116820180604052508101906110af9190612379565b5050565b600381815481106110c357600080fd5b906000526020600020016000915054906101000a900473ffffffffffffffffffffffffffffffffffffffff1681565b60026020528060005260406000206000915090508060000154908060010154908060020160009054906101000a900473ffffffffffffffffffffffffffffffffffffffff169080600301805461114790611e69565b80601f016020809104026020016040519081016040528092919081815260200182805461117390611e69565b80156111c05780601f10611195576101008083540402835291602001916111c0565b820191906000526020600020905b8154815290600101906020018083116111a357829003601f168201915b5050505050908060040160009054906101000a900460ff16908060050154905086565b600160009054906101000a900473ffffffffffffffffffffffffffffffffffffffff1681565b6112116114b2565b60008060005b6003805490508110156113105760006003828154811061123a576112396121de565b5b9060005260206000200160009054906101000a900473ffffffffffffffffffffffffffffffffffffffff1690506000600260008373ffffffffffffffffffffffffffffffffffffffff1673ffffffffffffffffffffffffffffffffffffffff16815260200190815260200160002090508060040160009054906101000a900460ff16156113015780600001548160010160008282546112d99190612284565b925050819055508060000154856112f09190612284565b945083806112fd9061223c565b9450505b50508080600101915050611217565b5081600160009054906101000a900473ffffffffffffffffffffffffffffffffffffffff1673ffffffffffffffffffffffffffffffffffffffff166370a08231306040518263ffffffff1660e01b815260040161136d9190611ca4565b602060405180830381865afa15801561138a573d6000803e3d6000fd5b505050506040513d601f19601f820116820180604052508101906113ae91906121b1565b10156113ef576040517f08c379a00000000000000000000000000000000000000000000000000000000081526004016113e69061256f565b60405180910390fd5b7fda24fc068c246587ac32513621f98385e5194f26bfc95ef9c849ce11d1d7a2f4828260405161142092919061258f565b60405180910390a15050565b6114346114b2565b600073ffffffffffffffffffffffffffffffffffffffff168173ffffffffffffffffffffffffffffffffffffffff16036114a65760006040517f1e4fbdf700000000000000000000000000000000000000000000000000000000815260040161149d9190611ca4565b60405180910390fd5b6114af81611539565b50565b6114ba6115fd565b73ffffffffffffffffffffffffffffffffffffffff166114d8610fe4565b73ffffffffffffffffffffffffffffffffffffffff1614611537576114fb6115fd565b6040517f118cdaa700000000000000000000000000000000000000000000000000000000815260040161152e9190611ca4565b60405180910390fd5b565b60008060009054906101000a900473ffffffffffffffffffffffffffffffffffffffff169050816000806101000a81548173ffffffffffffffffffffffffffffffffffffffff021916908373ffffffffffffffffffffffffffffffffffffffff1602179055508173ffffffffffffffffffffffffffffffffffffffff168173ffffffffffffffffffffffffffffffffffffffff167f8be0079c531659141344cd1fd0a4f28419497f9722a3daafe3b4186f6b6457e060405160405180910390a35050565b600033905090565b6040518060c001604052806000815260200160008152602001600073ffffffffffffffffffffffffffffffffffffffff16815260200160608152602001600015158152602001600081525090565b50805461165f90611e69565b6000825580601f106116715750611690565b601f01602090049060005260206000209081019061168f9190611693565b5b50565b5b808211156116ac576000816000905550600101611694565b5090565b6000604051905090565b600080fd5b600080fd5b6000819050919050565b6116d7816116c4565b81146116e257600080fd5b50565b6000813590506116f4816116ce565b92915050565b600080fd5b600080fd5b6000601f19601f8301169050919050565b7f4e487b7100000000000000000000000000000000000000000000000000000000600052604160045260246000fd5b61174d82611704565b810181811067ffffffffffffffff8211171561176c5761176b611715565b5b80604052505050565b600061177f6116b0565b905061178b8282611744565b919050565b600067ffffffffffffffff8211156117ab576117aa611715565b5b6117b482611704565b9050602081019050919050565b82818337600083830152505050565b60006117e36117de84611790565b611775565b9050828152602081018484840111156117ff576117fe6116ff565b5b61180a8482856117c1565b509392505050565b600082601f830112611827576118266116fa565b5b81356118378482602086016117d0565b91505092915050565b6000819050919050565b61185381611840565b811461185e57600080fd5b50565b6000813590506118708161184a565b92915050565b60008060006060848603121561188f5761188e6116ba565b5b600061189d868287016116e5565b935050602084013567ffffffffffffffff8111156118be576118bd6116bf565b5b6118ca86828701611812565b92505060406118db86828701611861565b9150509250925092565b6000602082840312156118fb576118fa6116ba565b5b6000611909848285016116e5565b91505092915050565b600081519050919050565b600082825260208201905092915050565b60005b8381101561194c578082015181840152602081019050611931565b60008484015250505050565b600061196382611912565b61196d818561191d565b935061197d81856020860161192e565b61198681611704565b840191505092915050565b61199a81611840565b82525050565b60008115159050919050565b6119b5816119a0565b82525050565b600060608201905081810360008301526119d58186611958565b90506119e46020830185611991565b6119f160408301846119ac565b949350505050565b600073ffffffffffffffffffffffffffffffffffffffff82169050919050565b6000611a24826119f9565b9050919050565b611a3481611a19565b8114611a3f57600080fd5b50565b600081359050611a5181611a2b565b92915050565b600080600060608486031215611a7057611a6f6116ba565b5b6000611a7e86828701611a42565b935050602084013567ffffffffffffffff811115611a9f57611a9e6116bf565b5b611aab86828701611812565b9250506040611abc86828701611861565b9150509250925092565b600060208284031215611adc57611adb6116ba565b5b6000611aea84828501611a42565b91505092915050565b611afc81611840565b82525050565b611b0b81611a19565b82525050565b600082825260208201905092915050565b6000611b2d82611912565b611b378185611b11565b9350611b4781856020860161192e565b611b5081611704565b840191505092915050565b611b64816119a0565b82525050565b600060c083016000830151611b826000860182611af3565b506020830151611b956020860182611af3565b506040830151611ba86040860182611b02565b5060608301518482036060860152611bc08282611b22565b9150506080830151611bd56080860182611b5b565b5060a0830151611be860a0860182611af3565b508091505092915050565b60006020820190508181036000830152611c0d8184611b6a565b905092915050565b6000606082019050611c2a6000830186611991565b611c376020830185611991565b611c446040830184611991565b949350505050565b600060208284031215611c6257611c616116ba565b5b600082013567ffffffffffffffff811115611c8057611c7f6116bf565b5b611c8c84828501611812565b91505092915050565b611c9e81611a19565b82525050565b6000602082019050611cb96000830184611c95565b92915050565b600060208284031215611cd557611cd46116ba565b5b6000611ce384828501611861565b91505092915050565b600060c082019050611d016000830189611991565b611d0e6020830188611991565b611d1b6040830187611c95565b8181036060830152611d2d8186611958565b9050611d3c60808301856119ac565b611d4960a0830184611991565b979650505050505050565b6000819050919050565b6000611d79611d74611d6f846119f9565b611d54565b6119f9565b9050919050565b6000611d8b82611d5e565b9050919050565b6000611d9d82611d80565b9050919050565b611dad81611d92565b82525050565b6000602082019050611dc86000830184611da4565b92915050565b7f496e7669746520616c7265616479206578697374730000000000000000000000600082015250565b6000611e0460158361191d565b9150611e0f82611dce565b602082019050919050565b60006020820190508181036000830152611e3381611df7565b9050919050565b7f4e487b7100000000000000000000000000000000000000000000000000000000600052602260045260246000fd5b60006002820490506001821680611e8157607f821691505b602082108103611e9457611e93611e3a565b5b50919050565b60008190508160005260206000209050919050565b60006020601f8301049050919050565b600082821b905092915050565b600060088302611efc7fffffffffffffffffffffffffffffffffffffffffffffffffffffffffffffffff82611ebf565b611f068683611ebf565b95508019841693508086168417925050509392505050565b6000611f39611f34611f2f84611840565b611d54565b611840565b9050919050565b6000819050919050565b611f5383611f1e565b611f67611f5f82611f40565b848454611ecc565b825550505050565b600090565b611f7c611f6f565b611f87818484611f4a565b505050565b5b81811015611fab57611fa0600082611f74565b600181019050611f8d565b5050565b601f821115611ff057611fc181611e9a565b611fca84611eaf565b81016020851015611fd9578190505b611fed611fe585611eaf565b830182611f8c565b50505b505050565b600082821c905092915050565b600061201360001984600802611ff5565b1980831691505092915050565b600061202c8383612002565b9150826002028217905092915050565b61204582611912565b67ffffffffffffffff81111561205e5761205d611715565b5b6120688254611e69565b612073828285611faf565b600060209050601f8311600181146120a65760008415612094578287015190505b61209e8582612020565b865550612106565b601f1984166120b486611e9a565b60005b828110156120dc578489015182556001820191506020850194506020810190506120b7565b868310156120f957848901516120f5601f891682612002565b8355505b6001600288020188555050505b505050505050565b600060208201905081810360008301526121288184611958565b905092915050565b7f416c726561647920726567697374657265640000000000000000000000000000600082015250565b600061216660128361191d565b915061217182612130565b602082019050919050565b6000602082019050818103600083015261219581612159565b9050919050565b6000815190506121ab8161184a565b92915050565b6000602082840312156121c7576121c66116ba565b5b60006121d58482850161219c565b91505092915050565b7f4e487b7100000000000000000000000000000000000000000000000000000000600052603260045260246000fd5b7f4e487b7100000000000000000000000000000000000000000000000000000000600052601160045260246000fd5b600061224782611840565b91507fffffffffffffffffffffffffffffffffffffffffffffffffffffffffffffffff82036122795761227861220d565b5b600182019050919050565b600061228f82611840565b915061229a83611840565b92508282019050808211156122b2576122b161220d565b5b92915050565b7f4e6f2066756e647320746f207769746864726177000000000000000000000000600082015250565b60006122ee60148361191d565b91506122f9826122b8565b602082019050919050565b6000602082019050818103600083015261231d816122e1565b9050919050565b60006040820190506123396000830185611c95565b6123466020830184611991565b9392505050565b612356816119a0565b811461236157600080fd5b50565b6000815190506123738161234d565b92915050565b60006020828403121561238f5761238e6116ba565b5b600061239d84828501612364565b91505092915050565b60006020820190506123bb6000830184611991565b92915050565b600081905092915050565b60006123d782611912565b6123e181856123c1565b93506123f181856020860161192e565b80840191505092915050565b600061240982846123cc565b915081905092915050565b7f496e76616c6964206f72207573656420696e7669746500000000000000000000600082015250565b600061244a60168361191d565b915061245582612414565b602082019050919050565b600060208201905081810360008301526124798161243d565b9050919050565b7f4164647265737320616c72656164792072656769737465726564000000000000600082015250565b60006124b6601a8361191d565b91506124c182612480565b602082019050919050565b600060208201905081810360008301526124e5816124a9565b9050919050565b60006060820190506125016000830186611c95565b61250e6020830185611c95565b61251b6040830184611991565b949350505050565b7f496e73756666696369656e7420636f6e74726163742062616c616e6365000000600082015250565b6000612559601d8361191d565b915061256482612523565b602082019050919050565b600060208201905081810360008301526125888161254c565b9050919050565b60006040820190506125a46000830185611991565b6125b16020830184611991565b939250505056fea26469706673582212201c707da5bc5fe2276feace66c734f3fdb7cbe9c4d316acc83f25874d1b5d7f1b64736f6c63430008180033a2646970667358221220031582710c689a2543505530e7feb463fe92f1ba02e575b5ab061f70db3c1e8564736f6c63430008180033",
  "linkReferences": {},
  "deployedLinkReferences": {}
}